:04000000007A030A75
:020000040800F2
:1000000000000220AD13000831140008311400086C
:1000100031140008311400083114000800000000F9
:100020000000000000000000000000003114000883
:1000300031140008000000003114000831140008D9
:10004000311400083114000831140008311400087C
:10005000311400083114000831140008311400086C
:10006000311400083114000831140008311400085C
:10007000311400083114000831140008311400084C
:10008000311400083114000831140008311400083C
:10009000311400083114000831140008311400082C
:1000A000311400083114000831140008311400081C
:1000B000311400083114000831140008311400080C
:1000C00031140008311400083114000831140008FC
:1000D00031140008311400083114000831140008EC
:1000E00031140008311400083114000831140008DC
:1000F00031140008311400083114000831140008CC
:1001000031140008311400083114000831140008BB
:1001100031140008311400083114000831140008AB
:10012000311400083114000831140008311400089B
:10013000311400083114000831140008311400088B
:10014000311400083114000831140008311400087B
:10015000311400083114000831140008311400086B
:10016000311400083114000831140008311400085B
:10017000311400083114000831140008311400084B
:10018000311400083114000880B487B000AF7860E3
:1001900041F21033FB6000237B610CE000233B61E4
:1001A00002E03B6901333B613A69FB689A42F8D34C
:1001B0007B6901337B617A697B689A42EED300BF29
:1001C00000BF1C37BD4680BC704780B500AF00F053
:1001D000C5FF0121082000F02BFB164B4FF47042A5
:1001E0001A60144B01221A71124B00229A71114BA2
:1001F00003225A710F4B0022DA710E490E4800F0AB
:1002000001FE0D4B4FF480521A830B4B4FF40052FA
:100210001A834FF47A70FFF7B7FF074B4FF4805201
:100220005A83054B4FF400525A834FF47A70FFF70C
:10023000ABFFE6E704000020000C024080B400AFF2
:10024000124B1B68114A43F0010313600F4B00224D
:100250009A600E4B1B680D4A23F0A16323F4803390
:1002600013600A4B0A4A5A60084B0A4AC3F88420B2
:10027000064B1B68054A23F480231360034B0022BE
:10028000DA6000BFBD4680BC704700BF0038024046
:10029000103000240030002080B483B000AF03464B
:1002A000FB71054B00221A70034AFB79137000BFE3
:1002B0000C37BD4680BC70470238024080B582B022
:1002C00000AF00233B600023FB710023BB71312092
:1002D00000F096FC0346BB713B6801333B603B6812
:1002E000B3F5A06F02D0BB79002BF0D0312000F025
:1002F00087FC0346002B02D00123FB7101E00023A1
:10030000FB71FB7918460837BD4680BD80B485B0C7
:1003100000AF0346FB710023FB600A4B1B68FB60C8
:10032000FB6823F0F803FB60FB79DB00FA681343FA
:10033000FB60044AFB68136000BF1437BD4680BCF5
:10034000704700BF0038024080B483B000AF03465E
:10035000FB71044AFB79136000BF0C37BD4680BCBB
:10036000704700BF0000474280B483B000AF03462F
:10037000FB710C4B00221A700A4B00221A70FB7999
:10038000012B02D0042B04D007E0064B01221A7087
:1003900003E0044B05221A7000BF00BF0C37BD46B6
:1003A00080BC70477038024080B483B000AF034611
:1003B000FB71044AFB79136000BF0C37BD4680BC5B
:1003C000704700BF800E474280B485B000AFF86030
:1003D000B9607A603B607B689A01BB681A433B68EE
:1003E0005B08013B1B041A43FB681A43BB691B06ED
:1003F000034913434B6000BF1437BD4680BC7047B0
:100400000038024080B483B000AF0346FB71044A59
:10041000FB79136000BF0C37BD4680BC704700BF3E
:100420006000474280B483B000AF786039607B6879
:100430009A013B681B0704491343C1F8843000BF8D
:100440000C37BD4680BC70470038024080B483B092
:1004500000AF0346FB71044AFB79136000BF0C3701
:10046000BD4680BC704700BF6800474280B483B07F
:1004700000AF0346FB71044AFB79136000BF0C37E1
:10048000BD4680BC704700BF4C00474280B485B079
:1004900000AF786039600023FB600A4B9B68FB600B
:1004A000FB6823F0EC63FB607A683B681343FA68EF
:1004B0001343FB60034AFB68936000BF1437BD46DB
:1004C00080BC70470038024080B485B000AF7860CF
:1004D00039600023FB600A4B9B68FB60FB6823F0DC
:1004E0007843FB607A683B681343FA681343FB6008
:1004F000034AFB68936000BF1437BD4680BC704759
:100500000038024080B485B000AF78600023FB6003
:10051000094B9B68FB60FB6823F00303FB60FA68F0
:100520007B681343FB60044AFB68936000BF143789
:10053000BD4680BC704700BF0038024080B400AFA9
:10054000044B9B68DBB203F00C03DBB21846BD46DC
:1005500080BC70470038024080B485B000AF78603E
:100560000023FB60094B9B68FB60FB6823F0F003F2
:10057000FB60FA687B681343FB60044AFB68936086
:1005800000BF1437BD4680BC704700BF0038024032
:1005900080B485B000AF78600023FB60094B9B6896
:1005A000FB60FB6823F4E053FB60FA687B6813434D
:1005B000FB60044AFB68936000BF1437BD4680BCF3
:1005C000704700BF0038024080B485B000AF78604B
:1005D0000023FB60094B9B68FB60FB6823F46043CE
:1005E000FB607B68DB00FA681343FB60034AFB682F
:1005F000936000BF1437BD4680BC7047003802408E
:1006000080B489B000AF78600023BB6100237B61B8
:100610000023FB6102233B610023FB600223BB60DC
:100620004A4B9B6803F00C03BB61BB69082B11D0DC
:10063000BB69082B44D8BB69002B03D0BB69042BD2
:1006400004D03DE07B68424A1A603DE07B68414A45
:100650001A6039E03D4B5B689B0D03F00103FB60C2
:100660003A4B5B6803F03F03BB60FB68002B0CD088
:10067000384ABB68B2FBF3F3344A52689209C2F3BA
:10068000080202FB03F3FB610BE0314ABB68B2FBDB
:10069000F3F32E4A52689209C2F3080202FB03F3F5
:1006A000FB612A4B5B681B0C03F0030301335B0007
:1006B0003B61FA693B69B2FBF3F27B681A6003E0C5
:1006C0007B68234A1A6000BF204B9B6803F0F0034D
:1006D000BB61BB691B09BB611F4ABB6913441B7823
:1006E000DBB27B617B681A687B69DA407B685A60A1
:1006F000164B9B6803F4E053BB61BB699B0ABB616B
:10070000154ABB6913441B78DBB27B617B685A686E
:100710007B69DA407B689A600C4B9B6803F460430A
:10072000BB61BB695B0BBB610B4ABB6913441B78A4
:10073000DBB27B617B685A687B69DA407B68DA6090
:1007400000BF2437BD4680BC704700BF0038024060
:100750000024F40000127A003814000880B485B038
:1007600000AF78600023FB607B6803F44073B3F54F
:10077000407F11D10F4B9B68FB60FB6823F4F8139B
:10078000FB607B6823F0704323F44073FA681343E3
:10079000FB60084AFB689360064B1A6F7B68C3F3E3
:1007A0000B03044913430B6700BF1437BD4680BCDD
:1007B000704700BF0038024080B483B000AF0346EA
:1007C000FB71044AFB79136000BF0C37BD4680BC47
:1007D000704700BF3C0E474280B483B000AF034671
:1007E000FB71044AFB79136000BF0C37BD4680BC27
:1007F000704700BF400E474280B483B000AF7860BE
:10080000034A7B68136000BF0C37BD4680BC70474D
:100810005C01474280B483B000AF7860034A7B68D4
:10082000136000BF0C37BD4680BC7047E0114742E3
:1008300080B483B000AF78600B46FB70FB78002B70
:1008400006D0094B1A6B08497B6813430B6306E01B
:10085000054B1A6B7B68DB43034913400B6300BFF6
:100860000C37BD4680BC70470038024080B483B06E
:1008700000AF78600B46FB70FB78002B06D0094B6D
:100880005A6B08497B6813434B6306E0054B5A6B70
:100890007B68DB43034913404B6300BF0C37BD4605
:1008A00080BC70470038024080B483B000AF7860ED
:1008B0000B46FB70FB78002B06D0094B9A6B08495E
:1008C0007B6813438B6306E0054B9A6B7B68DB43C5
:1008D000034913408B6300BF0C37BD4680BC704793
:1008E0000038024080B483B000AF78600B46FB70E4
:1008F000FB78002B06D0094B1A6C08497B68134320
:100900000B6406E0054B1A6C7B68DB43034913401C
:100910000B6400BF0C37BD4680BC704700380240F6
:1009200080B483B000AF78600B46FB70FB78002B7F
:1009300006D0094B5A6C08497B6813434B6406E0A8
:10094000054B5A6C7B68DB43034913404B6400BF83
:100950000C37BD4680BC70470038024080B483B07D
:1009600000AF78600B46FB70FB78002B06D0094B7C
:100970001A6908497B6813430B6106E0054B1A6945
:100980007B68DB43034913400B6100BF0C37BD4656
:1009900080BC70470038024080B483B000AF7860FC
:1009A0000B46FB70FB78002B06D0094B5A690849AF
:1009B0007B6813434B6106E0054B5A697B68DB4358
:1009C000034913404B6100BF0C37BD4680BC7047E4
:1009D0000038024080B483B000AF78600B46FB70F3
:1009E000FB78002B06D0094B9A6908497B681343B2
:1009F0008B6106E0054B9A697B68DB430349134032
:100A00008B6100BF0C37BD4680BC70470038024088
:100A100080B483B000AF78600B46FB70FB78002B8E
:100A200006D0094B1A6A08497B6813430B6206E03B
:100A3000054B1A6A7B68DB43034913400B6200BF16
:100A40000C37BD4680BC70470038024080B483B08C
:100A500000AF78600B46FB70FB78002B06D0094B8B
:100A60005A6A08497B6813434B6206E0054B5A6A91
:100A70007B68DB43034913404B6200BF0C37BD4624
:100A800080BC70470038024080B483B000AF78600B
:100A90000B46FB70FB78002B06D0094B1A6D0849FA
:100AA0007B6813430B6506E0054B1A6D7B68DB43DF
:100AB000034913400B6500BF0C37BD4680BC70472F
:100AC0000038024080B483B000AF78600B46FB7002
:100AD000FB78002B06D0094B5A6D08497B681343FD
:100AE0004B6506E0054B5A6D7B68DB4303491340B9
:100AF0004B6500BF0C37BD4680BC704700380240D4
:100B000080B483B000AF78600B46FB70FB78002B9D
:100B100006D0094B9A6D08497B6813438B6506E044
:100B2000054B9A6D7B68DB43034913408B6500BF1F
:100B30000C37BD4680BC70470038024080B483B09B
:100B400000AF78600B46FB70FB78002B06D0094B9A
:100B50001A6E08497B6813430B6606E0054B1A6E54
:100B60007B68DB43034913400B6600BF0C37BD466F
:100B700080BC70470038024080B483B000AF78601A
:100B80000B46FB70FB78002B06D0094B5A6E0849C8
:100B90007B6813434B6606E0054B5A6E7B68DB436C
:100BA000034913404B6600BF0C37BD4680BC7047FD
:100BB0000038024080B483B000AF03460A46FB71A0
:100BC0001346BB71BB79002B08D00C4B1B78DAB2F3
:100BD0000A49FB791343DBB20B7009E0074B1B7822
:100BE000DAB2FB79DB43DBB204491340DBB20B70B2
:100BF00000BF0C37BD4680BC704700BF0D380240B7
:100C000080B487B000AF0346FB710023FB60002374
:100C10007B610023FB74FB795B09DBB2FB60FB6843
:100C2000012B03D1124B1B687B6109E0FB68022B8F
:100C300003D10F4B1B6F7B6102E00D4B5B6F7B6140
:100C4000FB7903F01F03FB607A69FB6822FA03F368
:100C500003F00103002B02D00123FB7401E0002309
:100C6000FB74FB7C18461C37BD4680BC704700BF38
:100C70000038024080B400AF044B5B6F034A43F07E
:100C80008073536700BFBD4680BC70470038024088
:100C900080B485B000AF0346FB710023FB73084BA3
:100CA000DA68FB791340002B02D00123FB7301E0CB
:100CB0000023FB73FB7B18461437BD4680BC70478E
:100CC0000038024080B483B000AF0346FB71044A91
:100CD000FB79137000BF0C37BD4680BC704700BF66
:100CE0000E38024080B582B000AF78607B683C4A25
:100CF000934208D101210120FFF730FE002101209D
:100D0000FFF72CFE68E07B68364A934208D1012148
:100D10000220FFF723FE00210220FFF71FFE5BE009
:100D20007B68314A934208D101210420FFF716FE67
:100D300000210420FFF712FE4EE07B682B4A93420D
:100D400008D101210820FFF709FE00210820FFF744
:100D500005FE41E07B68264A934208D1012110201C
:100D6000FFF7FCFD00211020FFF7F8FD34E07B6861
:100D7000204A934208D101212020FFF7EFFD0021F6
:100D80002020FFF7EBFD27E07B681B4A934208D148
:100D900001214020FFF7E2FD00214020FFF7DEFDAA
:100DA0001AE07B68154A934208D101218020FFF7A1
:100DB000D5FD00218020FFF7D1FD0DE07B68104AB2
:100DC000934209D101214FF48070FFF7C7FD002144
:100DD0004FF48070FFF7C2FD00BF0837BD4680BDED
:100DE000000002400004024000080240000C0240E3
:100DF000001002400014024000180240001C024093
:100E00000020024080B487B000AF786039600023D2
:100E10007B6100233B610023FB6000237B6176E064
:100E200001227B6902FA03F33B613B681B683A6964
:100E30001340FB60FA683B699A4265D17B681A6887
:100E40007B695B00032101FA03F3DB431A407B68F3
:100E50001A607B681A683B681B7919467B695B00DE
:100E600001FA03F31A437B681A603B681B79012B74
:100E700003D03B681B79022B2ED17B689A687B6973
:100E80005B00032101FA03F3DB431A407B689A609D
:100E90007B689A683B685B7919467B695B0001FA5D
:100EA00003F31A437B689A607B685A687B699BB23C
:100EB000194601238B40DB431A407B685A607B68EC
:100EC0005B683A68927911467A6992B201FA02F245
:100ED00092B21A437B685A607B68DA687B699BB27E
:100EE0005B00032101FA03F3DB431A407B68DA60FD
:100EF0007B68DA683B68DB7919467B695B0001FA3D
:100F000003F31A437B68DA607B6901337B617B6999
:100F10000F2B85D900BF00BF1C37BD4680BC704772
:100F200080B483B000AF78607B684FF6FF721A60C0
:100F30007B6800221A717B6800225A717B6800224C
:100F40009A717B680022DA7100BF0C37BD4680BC05
:100F5000704780B485B000AF78600B467B804FF45B
:100F60008033FB607A88FB681343FB60FA687B6818
:100F7000DA617A887B68DA61FA687B68DA617B68B3
:100F8000DB69FB607B68DB69FB6000BF1437BD4633
:100F900080BC704780B485B000AF78600B467B8022
:100FA0000023FB737B681A697B881340002B02D0F7
:100FB0000123FB7301E00023FB73FB7B184614370E
:100FC000BD4680BC704780B483B000AF78607B685A
:100FD0001B699BB218460C37BD4680BC704780B475
:100FE00085B000AF78600B467B800023FB737B6885
:100FF0005A697B881340002B02D00123FB7301E068
:101000000023FB73FB7B18461437BD4680BC70473A
:1010100080B483B000AF78607B685B699BB2184690
:101020000C37BD4680BC704780B483B000AF786099
:101030000B467B807B687A881A8300BF0C37BD46DD
:1010400080BC704780B483B000AF78600B467B8073
:101050007B687A885A8300BF0C37BD4680BC7047D6
:1010600080B483B000AF78600B467B8013467B7002
:101070007B78002B03D07B687A881A8302E07B6838
:101080007A885A8300BF0C37BD4680BC704780B455
:1010900083B000AF78600B467B807A887B685A61AA
:1010A00000BF0C37BD4680BC704780B483B000AF32
:1010B00078600B467B807B685A697B885A407B68E6
:1010C0005A6100BF0C37BD4680BC704780B485B004
:1010D00000AF78600B467B8013467B700023FB607B
:1010E0000023BB607A787B8803F007039B0002FA39
:1010F00003F3FB607B88DB089BB21A467B680832EF
:1011000053F822207B8803F007039B000F2101FA8C
:1011100003F3DB437988C90889B2084602EA030170
:101120007B6800F1080243F822107B88DB089BB241
:101130001A467B68083253F82230FA681343BB60C2
:101140007B88DB089BB21A467B680832B96843F893
:10115000221000BF1437BD4680BC704780B500AF79
:10116000124B1B68114A43F0010313600F4B00221E
:101170009A600E4B1B680D4A23F0847323F480336E
:1011800013600A4B0A4A5A60084B1B68074A23F44B
:1011900080231360054B0022DA6000F08DF8054BC8
:1011A0004FF000629A6000BF80BD00BF003802406F
:1011B0001030002400ED00E080B487B000AF0023C1
:1011C0003B6100237B610223FB600023BB600223A1
:1011D0007B60344B9B6803F00C033B613B69082B3D
:1011E00011D03B69082B44D83B69002B03D03B69E5
:1011F000042B04D03DE02C4B2C4A1A603DE02A4BD6
:101200002B4A1A6039E0274B5B689B0D03F0010302
:10121000BB60244B5B6803F03F037B60BB68002B23
:101220000CD0234A7B68B2FBF3F31E4A5268920942
:10123000C2F3080202FB03F37B610BE01B4A7B68ED
:10124000B2FBF3F3174A52689209C2F3080202FB99
:1012500003F37B61134B5B681B0C03F00303013347
:101260005B00FB607A69FB68B2FBF3F30E4A136024
:1012700003E00D4B0D4A1A6000BF0A4B9B681B0927
:1012800003F00F030B4AD35CDBB23B61064B1A68D9
:101290003B6922FA03F3044A136000BF1C37BD46C2
:1012A00080BC704700380240000000200024F40099
:1012B00000127A004814000880B483B000AF002305
:1012C0007B6000233B60354B1B68344A43F480331A
:1012D0001360324B1B6803F400333B607B680133BF
:1012E0007B603B68002B03D17B68B3F5A06FF0D126
:1012F0002A4B1B6803F40033002B02D001233B6010
:1013000001E000233B603B68012B42D1234B1B6C67
:10131000224A43F080531364214B1B68204A43F454
:10132000804313601D4B1D4A9B6893601B4B9B6859
:101330001A4A43F400439360184B9B68174A43F4DE
:10134000A0539360154B174A5A60144B1B68134AFD
:1013500043F08073136000BF104B1B6803F00073F1
:10136000002BF9D0104B40F205721A600B4B9B68B2
:101370000A4A23F003039360084B9B68074A43F033
:101380000203936000BF054B9B6803F00C03082B1E
:10139000F9D100BF0C37BD4680BC70470038024011
:1013A0000070004019544007003C024080B586B0F0
:1013B00000AF1A4A1A4BD31ABB60194B7B61194B09
:1013C0007B6000233B610AE07A69531C7B617B6987
:1013D000591C796112781A703B6901333B613A6993
:1013E000BB689A42F0D9104A104BD31ABB600F4B1E
:1013F0007B610023FB6007E07B695A1C7A61002255
:101400001A70FB680133FB60FA68BB689A42F3D933
:10141000FEF7DBFE00BF1837BD4680BD040000208C
:1014200000000020000000000C000020040000204C
:1014300080B400AFFEE700BF00000000010203041B
:101440000102030406070809000000000000000074
:0814500001020304060708096C
:04000005080013AD2F
:00000001FF
