:020000040800F2
:10000000000002200506000889060008890600088D
:10001000890600088906000889060008000000001B
:100020000000000000000000000000008906000839
:1000300089060008000000008906000889060008FB
:100040008906000889060008890600088906000854
:100050008906000889060008890600088906000844
:100060008906000889060008890600088906000834
:100070008906000889060008890600088906000824
:100080008906000889060008890600088906000814
:100090008906000889060008890600088906000804
:1000A00089060008890600088906000889060008F4
:1000B00089060008890600088906000889060008E4
:1000C00089060008890600088906000889060008D4
:1000D00089060008890600088906000889060008C4
:1000E00089060008890600088906000889060008B4
:1000F00089060008890600088906000889060008A4
:100100008906000889060008890600088906000893
:100110008906000889060008890600088906000883
:100120008906000889060008890600088906000873
:100130008906000889060008890600088906000863
:100140008906000889060008890600088906000853
:100150008906000889060008890600088906000843
:100160008906000889060008890600088906000833
:100170008906000889060008890600088906000823
:10018000890600088906000880B586B006AF0223FC
:1001900004934FF4A873039319230293012301934B
:1001A00001230093042305220021022000F014F80B
:1001B000012300220021074800F084F901220021D8
:1001C000044800F0D0F900220021024800F0CBF9E9
:1001D000F4E700BF0000024090B488B000AF0446CE
:1001E000084611461A462346FB710346BB710B466F
:1001F0007B7113463B71654B1B6C644A43F0805323
:100200001364634B1B68624A43F440431360614BC1
:1002100040F205721A6097F82C30012B13D15B4B1A
:100220001B685A4A43F00103136000BF574B1B6819
:1002300003F00203002BF9D0544B5B68534A43F49C
:100240008003536016E097F82C30002B12D14F4BEF
:100250001B684E4A43F48033136000BF4B4B1B684E
:1002600003F40033002BF9D0484B5B68474A23F472
:10027000800353603A8EBB8E9B011A433B8F1B0455
:100280001A43424B5A60414B9A68BB79DB013F49A4
:1002900013438B603D4B9A687B791B033B491343A7
:1002A0008B603A4B9A683B79DB03384913438B6088
:1002B00097F82830012B06D1344B1B68334A23F0C2
:1002C0008073136010E097F82830002B0CD12F4B6F
:1002D0001B682E4A43F08073136000BF2B4B1B68D2
:1002E00003F00073002BF9D0284B9A68FB7927495B
:1002F00013438B6000BF254B9A68FB799B0013402A
:10030000002BF8D0244B00221A600023FB6100234D
:10031000BB6100237B6100233B610023FB60FB7911
:10032000002B03D11C4B1D4A1A602AE0FB79012BDC
:1003300003D1194B1A4A1A6023E0FB79022B20D112
:1003400097F82830012B1CD197F82C30002B02D1C4
:10035000124BFB6105E097F82C30012B01D1104BBB
:10036000FB613B8EFA69B2FBF3F3BA8E02FB03F337
:10037000BB613B8FBA69B2FBF3F3BB61064ABB6951
:10038000136000BF2037BD4690BC70470038024064
:1003900000700040003C0240000000200024F400F7
:1003A00000127A0080B483B000AF78607B683B4A6B
:1003B000934265D0394A934269D8394A934258D01A
:1003C000374A934263D8374A93424BD0354A9342D7
:1003D0005DD8354A93423ED0334A934257D8334A88
:1003E000934231D0314A934251D8314A934224D07A
:1003F0002F4A93424BD82F4A934217D02D4A93420B
:1004000045D82D4A934203D02C4A934207D03EE070
:100410002B4B1B6B2A4A43F00103136338E0284B34
:100420001B6B274A43F00203136331E0244B1B6B21
:10043000234A43F0040313632AE0214B1B6B204A39
:1004400043F00803136323E01D4B1B6B1C4A43F06E
:10045000100313631CE01A4B1B6B194A43F0200373
:10046000136315E0164B1B6B154A43F040031363EF
:100470000EE0134B1B6B124A43F08003136307E03B
:100480000F4B1B6B0E4A43F48073136300E000BFF5
:1004900000BF0C37BD4680BC704700BF0020024043
:1004A000001C0240001802400014024000100240EC
:1004B000000C02400008024000000240000402401C
:1004C0000038024080B582B000AF7860084611461F
:1004D0001A460346FB700B46BB7013467B70786868
:1004E000FFF760FF7B681A68FB785B00013301212E
:1004F00001FA03F31A437B681A607B685B68B9787A
:10050000FA7801FA02F21A437B685A607B689B68AA
:100510007978FA785200013201FA02F21A437B68C4
:100520009A6000BF0837BD4680BD80B582B000AF7D
:1005300078600B46FB701346BB707868FFF732FF9C
:100540007B681A687B681A607B68DB68B978FA7820
:100550005200013201FA02F21A437B68DA6000BFEE
:100560000837BD4680BD80B483B000AF78600B46CD
:10057000FB701346BB70BB78002B13D17B689B6963
:10058000FA78012101FA02F21A437B689A617B68CA
:100590009B69FA781032012101FA02F2D2431A4023
:1005A0007B689A61BB78012B13D17B689B69FA78D1
:1005B000012101FA02F2D2431A407B689A617B68FA
:1005C0009B69FA781032012101FA02F21A437B6822
:1005D0009A6100BF0C37BD4680BC704780B483B0C1
:1005E00000AF78600B46FB707B681A69FB7822FAD3
:1005F00003F3DBB203F00103DBB218460C37BD4650
:1006000080BC704780B586B000AF1A4A1A4BD31A27
:10061000BB60194B7B61194B7B6000233B610AE097
:100620007A69531C7B617B69591C796112781A7055
:100630003B6901333B613A69BB689A42F0D9104A81
:10064000104BD31ABB600F4B7B610023FB6007E0AC
:100650007B695A1C7A6100221A70FB680133FB60C7
:10066000FA68BB689A42F3D9FFF78EFD00BF1837CE
:10067000BD4680BD000000200000002000000000FA
:10068000040000200000002080B400AFFEE700BF9F
:0400000508000605E4
:00000001FF
