:020000040800F2
:10000000000002201D0E0008A10E0008A10E00082D
:10001000A10E0008A10E0008A10E000800000000BB
:10002000000000000000000000000000A10E000819
:10003000A10E000800000000A10E0008C90300087E
:10004000A10E0008A10E0008A10E0008A10E0008D4
:10005000A10E0008A10E00081502000831020008D8
:100060004D0200086902000885020008A10E000880
:10007000A10E0008A10E0008A10E0008A10E0008A4
:10008000A10E0008A10E0008A10E0008A10E000894
:10009000A10E0008A10E0008A10E0008A102000890
:1000A000A10E0008A10E0008A10E0008A10E000874
:1000B000A10E0008A10E0008A10E0008A10E000864
:1000C000A10E0008A10E0008A10E0008A10E000854
:1000D000A10E0008A10E0008A10E0008A10E000844
:1000E00029030008A10E0008A10E0008A10E0008B7
:1000F000A10E0008A10E0008A10E0008A10E000824
:10010000A10E0008A10E0008A10E0008A10E000813
:10011000A10E0008A10E0008A10E0008A10E000803
:10012000A10E0008A10E0008A10E0008A10E0008F3
:10013000A10E0008A10E0008A10E0008A10E0008E3
:10014000A10E0008A10E0008A10E0008A10E0008D3
:10015000A10E0008A10E0008A10E0008A10E0008C3
:10016000A10E0008A10E0008A10E0008A10E0008B3
:10017000A10E0008A10E0008A10E0008A10E0008A3
:10018000A10E0008A10E000880B586B006AF00F0F1
:10019000C9FE02230493A82303930423029301239B
:1001A000019301230093042305220021022000F083
:1001B00019F9012300220621144800F0D9FA0F236F
:1001C0000093022301220421114800F01FFB0F239A
:1001D00000930223012203210D4800F017FB0122A6
:1001E00006210A4800F0A8FD00220621074800F079
:1001F000A3FD322000F0A4FE01220621034800F0F6
:100200009BFD322000F09CFEEEE700BF00000240A4
:100210000010024080B400AF044B5B69034A43F016
:100220000103536100BFBD4680BC7047003C0140E4
:1002300080B400AF044B5B69034A43F0020353618F
:1002400000BFBD4680BC7047003C014080B400AF99
:10025000044B5B69034A43F00403536100BFBD468E
:1002600080BC7047003C014080B400AF044B5B6928
:10027000034A43F00803536100BFBD4680BC70478A
:10028000003C014080B400AF044B5B69034A43F07B
:100290001003536100BFBD4680BC7047003C014065
:1002A00080B400AF1F4B5B6903F02003002B05D027
:1002B0001C4B5B691B4A43F020035361194B5B697C
:1002C00003F04003002B05D0164B5B69154A43F041
:1002D00040035361134B5B6903F08003002B05D08F
:1002E000104B5B690F4A43F0800353610D4B5B6910
:1002F00003F48073002B05D00A4B5B69094A43F471
:1003000080735361074B5B6903F40073002B05D0C6
:10031000044B5B69034A43F40073536100BFBD465D
:1003200080BC7047003C014080B400AF254B5B6946
:1003300003F48063002B05D0224B5B69214A43F410
:10034000806353611F4B5B6903F40063002B05D08E
:100350001C4B5B691B4A43F400635361194B5B6997
:1003600003F48053002B05D0164B5B69154A43F408
:1003700080535361134B5B6903F40053002B05D08A
:10038000104B5B690F4A43F4005353610D4B5B699B
:1003900003F48043002B05D00A4B5B69094A43F400
:1003A00080435361074B5B6903F40043002B05D086
:1003B000044B5B69034A43F40043536100BFBD46ED
:1003C00080BC7047003C014080B400AF044B1B6808
:1003D0000133034A136000BFBD4680BC704700BFB5
:1003E0000400002090B589B000AF044608461146CD
:1003F0001A462346FB710346BB710B467B711346BD
:100400003B710023BB6197F83430002B02D0FB799D
:10041000002B1CD1884B1B68874A43F001031360F3
:1004200000F076FDB8610BE000F072FD0246BB699A
:10043000D31AB3F57A7F03D90023BB6100BF28E04C
:100440007D4B1B6803F00203002BEDD021E097F8F1
:100450003430012B02D0FB79012B1AD1764B1B686B
:10046000754A43F48033136000F052FDB8610AE02E
:1004700000F04EFD0246BB69D31AB3F57A7F02D96C
:100480000023BB6105E06C4B1B6803F40033002BB9
:10049000EED0694B1B6C684A43F080531364674B82
:1004A0001B68664A43F440431360654B40F2057293
:1004B0001A60614B9A68BB791B015F4913438B60DB
:1004C0005D4B9A687B799B025B4913438B605A4B67
:1004D0009A683B795B03584913438B603A8FBB8F13
:1004E0009B011A43B7F840305B089BB2013B1B04E9
:1004F0001A43514B5A6097F83430002B06D14E4BBB
:100500005B684D4A23F48003536009E097F8343068
:10051000012B05D1484B5B68474A43F48003536085
:1005200097F83030002B06D1434B1B68424A23F02A
:10053000807313601EE097F83030012B1AD13E4BC8
:100540001B683D4A43F08073136000F0E1FCB86122
:100550000AE000F0DDFC0246BB69D31AB3F57A7FEE
:1005600002D90023BB6105E0334B1B6803F0007325
:10057000002BEED0304B9A68FB792F4913438B60E8
:1005800000F0C6FCB8610AE000F0C2FC0246BB699C
:10059000D31AB3F57A7F02D90023BB6106E0264B5C
:1005A0009A68FB799B001340002BEDD0254B00226D
:1005B0001A600023FB6100237B6100233B61002361
:1005C000FB600023BB60FB79002B03D11D4B1E4A4F
:1005D0001A602BE0FB79012B03D11A4B1B4A1A60DE
:1005E00024E0FB79022B21D197F83030012B1DD16B
:1005F00097F83430002B02D1134BFB6105E097F8DC
:100600003430012B01D1114BFB613B8FFA69B2FBF6
:10061000F3F3BA8F02FB03F37B61B7F840307A69DA
:10062000B2FBF3F37B61074A7B69136000F03CFC8B
:1006300000BF2437BD4690BD003802400070004026
:10064000003C0240000000200024F40000127A0068
:1006500080B483B000AF78607B683B4A934265D03A
:10066000394A934269D8394A934258D0374A93421B
:1006700063D8374A93424BD0354A93425DD8354AC6
:1006800093423ED0334A934257D8334A934231D0B3
:10069000314A934251D8314A934224D02F4A93424F
:1006A0004BD82F4A934217D02D4A934245D82D4A12
:1006B000934203D02C4A934207D03EE02B4B1B6B56
:1006C0002A4A43F00103136338E0284B1B6B274A87
:1006D00043F00203136331E0244B1B6B234A43F0C6
:1006E000040313632AE0214B1B6B204A43F00803E9
:1006F000136323E01D4B1B6B1C4A43F01003136371
:100700001CE01A4B1B6B194A43F02003136315E0DE
:10071000164B1B6B154A43F0400313630EE0134B5B
:100720001B6B124A43F08003136307E00F4B1B6BF4
:100730000E4A43F48073136300E000BF00BF0C3720
:10074000BD4680BC704700BF00200240001C024034
:10075000001802400014024000100240000C024049
:10076000000802400000024000040240003802403D
:1007700080B582B000AF7860084611461A4603463D
:10078000FB700B46BB7013467B707868FFF760FF09
:100790007B681A68FB785B00012101FA03F31A43B6
:1007A0007B681A607B685B68B978FA7801FA02F2B4
:1007B0001A437B685A607B689B687978FA785200A4
:1007C00001FA02F21A437B689A6000BF0837BD46FF
:1007D00080BD80B582B000AF78600B46FB701346D9
:1007E000BB707868FFF734FF7B681A687B681A6013
:1007F0007B68DB68B978FA78520001FA02F21A4392
:100800007B68DA6000BF0837BD4680BD80B584B024
:1008100000AF7860084611461A460346FB700B4647
:10082000BB7013467B70BA78FB7819467868FFF77F
:10083000D0FFA14B5B6CA04A43F480435364FF2379
:10084000FB737B689D4A934245D09C4A934245D8AE
:100850009B4A93423CD09A4A93423FD8994A93424A
:1008600033D0984A934239D8974A93422AD0964A2D
:10087000934233D8954A934221D0944A93422DD83B
:10088000934A934218D0924A934227D8914A93426E
:100890000FD0904A934221D88F4A934203D08F4A77
:1008A000934203D01AE00023FB7318E00123FB738B
:1008B00015E00223FB7312E00323FB730FE0042314
:1008C000FB730CE00523FB7309E00623FB7306E0D2
:1008D0000723FB7303E00823FB7300E000BF804A9B
:1008E000FB789B08D8B20346023352F82330FA78DB
:1008F00002F0030292000F2101FA02F2D24378497A
:100900001A40831C41F82320754AFB789B08D8B213
:100910000346023352F82330F97BFA7802F00302DF
:10092000920001FA02F26E491A43831C41F8232017
:100930006C4B1B68FA78012101FA02F21146694AF0
:100940000B4313607B78022B32D0022B45DC002B4B
:1009500002D0012B16D040E0624B9B68FA7801214F
:1009600001FA02F211465F4A0B4393605D4BDB686C
:10097000FA78012101FA02F2D2431146594A0B409A
:10098000D3602BE0574BDB68FA78012101FA02F2C1
:10099000D2431146534A0B40D360524B9B68FA78BE
:1009A000012101FA02F211464E4A0B43936015E011
:1009B0004C4B9B68FA78012101FA02F21146494A30
:1009C0000B439360474BDB68FA78012101FA02F28E
:1009D0001146444A0B43D36000E000BF3B7E0F2B1F
:1009E00001D90F233B76FB780F2B00F29D8101A2EA
:1009F00052F823F0350A0008610A00088D0A000841
:100A0000ED0A0008190B0008450B0008710B0008DF
:100A10009D0B0008C90B0008F50B0008210C00080D
:100A20004D0C0008790C0008A50C0008D10C00083A
:100A3000FD0C00082C4B93F80633DBB25AB297F941
:100A400018301B015BB213435AB2274BD2B283F862
:100A50000623254B1B68244A43F04003136064E1DE
:100A6000214B93F80733DBB25AB297F918301B01C8
:100A70005BB213435AB21C4BD2B283F807231A4B12
:100A80001B68194A43F0800313604EE1164B93F83C
:100A90000833DBB25AB297F918301B015BB213432B
:100AA0005AB2114BD2B283F808230F4B1B680E4A7F
:100AB00043F48073136038E10038024000200240A4
:100AC000001C0240001802400014024000100240C6
:100AD000000C0240000802400000024000040240F6
:100AE00000380140003C014000E100E0914B93F8E8
:100AF0000933DBB25AB297F918301B015BB21343CA
:100B00005AB28C4BD2B283F809238A4B1B68894AAC
:100B100043F40073136008E1864B93F80A33DBB2A9
:100B20005AB297F918301B015BB213435AB2814B8A
:100B3000D2B283F80A237F4B1B687E4A43F480635A
:100B40001360F2E07B4B93F81733DBB25AB297F99C
:100B500018301B015BB213435AB2764BD2B283F802
:100B60001723744B1B68734A43F400031360DCE0E3
:100B7000704B93F81733DBB25AB297F918301B0158
:100B80005BB213435AB26B4BD2B283F81723694B53
:100B90001B68684A43F400031360C6E0654B93F892
:100BA0001733DBB25AB297F918301B015BB213430B
:100BB0005AB2604BD2B283F817235E4B1B685D4A72
:100BC00043F400031360B0E05A4B93F81733DBB2E1
:100BD0005AB297F918301B015BB213435AB2554B06
:100BE000D2B283F81723534B1B68524A43F40003D5
:100BF00013609AE04F4B93F81733DBB25AB297F970
:100C000018301B015BB213435AB24A4BD2B283F87D
:100C10001723484B1B68474A43F40003136084E0E2
:100C2000444B93F82833DBB25AB297F918301B01C2
:100C30005BB213435AB23F4BD2B283F828233D4BE9
:100C40005B683C4A43F4807353606EE0394B93F821
:100C50002833DBB25AB297F918301B015BB2134349
:100C60005AB2344BD2B283F82823324B5B68314AF4
:100C700043F40073536058E02E4B93F82833DBB2F3
:100C80005AB297F918301B015BB213435AB2294B81
:100C9000D2B283F82823274B5B68264A43F480634B
:100CA000536042E0234B93F82833DBB25AB297F9F2
:100CB00018301B015BB213435AB21E4BD2B283F8F9
:100CC00028231C4B5B681B4A43F4006353602CE0F1
:100CD000184B93F82833DBB25AB297F918301B013E
:100CE0005BB213435AB2134BD2B283F82823114B91
:100CF0005B68104A43F48053536016E00D4B93F841
:100D00002833DBB25AB297F918301B015BB2134398
:100D10005AB2084BD2B283F82823064B5B68054AC7
:100D200043F40053536000E000BF62B600BF1037C9
:100D3000BD4680BD00E100E080B483B000AF7860C4
:100D40000B46FB701346BB70BB78012B13D17B683D
:100D50009B69FA78012101FA02F21A437B689A61D1
:100D60007B689B69FA781032012101FA02F2D243C2
:100D70001A407B689A61BB78002B13D17B689B6912
:100D8000FA78012101FA02F2D2431A407B689A6193
:100D90007B689B69FA781032012101FA02F21A434A
:100DA0007B689A6100BF0C37BD4680BC704780B439
:100DB00083B000AF78600B46FB707B681A69FB78E4
:100DC00022FA03F3DBB203F00103DBB218460C375F
:100DD000BD4680BC704700BF80B485B000AF78606E
:100DE0000C4B1B680C4AA2FB03235B0BBB60BB686C
:100DF0007A6802FB03F3FB6000E000BFFB685A1E49
:100E0000FA60002BF9D100BF00BF1437BD4680BC8B
:100E1000704700BF000000205917B7D180B586B0D9
:100E200000AF1A4A1A4BD31ABB60194B7B61194B9E
:100E30007B6000233B610AE07A69531C7B617B691C
:100E4000591C796112781A703B6901333B613A6928
:100E5000BB689A42F0D9104A104BD31ABB600F4BB3
:100E60007B610023FB6007E07B695A1C7A610022EA
:100E70001A70FB680133FB60FA68BB689A42F3D9C9
:100E8000FFF782F900BF1837BD4680BD0000002083
:100E900000000020000000000800002000000020EA
:100EA00080B400AFFEE700BF80B400AF154B1B68F5
:100EB000144A23F001031360124B1B68114A43F0DC
:100EC000040313600F4B1B680E4A43F002031360C8
:100ED0000C4B00225A600B4B00229A600A4B1B6895
:100EE0000A4AA2FB03239B09064A013B5360054BB8
:100EF0001B68044A43F00103136000BFBD4680BC79
:100F0000704700BF10E000E000000020D34D6210E9
:100F100080B400AF024B1B681846BD4680BC7047CA
:100F20000400002080B500AF034B044A1A60FFF7AD
:100F3000BBFF00BF80BD00BF000000200024F40004
:100F400080B584B000AF78600023FB60FFF7E0FF5E
:100F5000F86000BFFFF7DCFF0246FB68D31A7A682F
:100F60009A42F7D100BF00BF1037BD4680BD00BF19
:0400000508000E1DC4
:00000001FF
