:020000040800F2
:100000000000022079090008FD090008FD09000828
:10001000FD090008FD090008FD09000800000000B6
:10002000000000000000000000000000FD090008C2
:10003000FD09000800000000FD090008FD09000896
:10004000FD090008FD090008FD090008FD09000878
:10005000FD090008FD090008050A0008110A00084A
:100060001D0A0008290A0008350A0008FD090008D1
:10007000FD090008FD090008FD090008FD09000848
:10008000FD090008FD090008FD090008FD09000838
:10009000FD090008FD090008FD090008410A0008E3
:1000A000FD090008FD090008FD090008FD09000818
:1000B000FD090008FD090008FD090008FD09000808
:1000C000FD090008FD090008FD090008FD090008F8
:1000D000FD090008FD090008FD090008FD090008E8
:1000E0004D0A0008FD090008FD090008FD09000887
:1000F000FD090008FD090008FD090008FD090008C8
:10010000FD090008FD090008FD090008FD090008B7
:10011000FD090008FD090008FD090008FD090008A7
:10012000FD090008FD090008FD090008FD09000897
:10013000FD090008FD090008FD090008FD09000887
:10014000FD090008FD090008FD090008FD09000877
:10015000FD090008FD090008FD090008FD09000867
:10016000FD090008FD090008FD090008FD09000857
:10017000FD090008FD090008FD090008FD09000847
:10018000FD090008FD09000880B586B006AF02230E
:100190000493A823039304230293012301930123CF
:1001A0000093042305220021022000F01BF800F038
:1001B00011F9012300220621084800F0F1F900237B
:1001C00000930F2301220421054800F037FA012291
:1001D0000621024800F05EFBFEE700BF000002407F
:1001E0000010024090B488B000AF044608461146A3
:1001F0001A462346FB710346BB710B467B711346BF
:100200003B7197F82C30002B02D0FB79002B0DD1DD
:100210006A4B1B68694A43F00103136000BF674BD8
:100220001B6803F00203002BF9D013E097F82C3081
:10023000012B02D0FB79012B0CD1604B1B685F4A6C
:1002400043F48033136000BF5C4B1B6803F400333E
:10025000002BF9D0594B1B6C584A43F08053136460
:10026000574B1B68564A43F440431360554B40F2CA
:1002700005721A60514B9A68BB791B014F491343B1
:100280008B604E4B9A687B799B024C4913438B6081
:100290004A4B9A683B795B03484913438B603A8E1B
:1002A000BB8E9B011A433B8F5B089BB2013B1B0437
:1002B0001A43424B5A6097F82C30002B06D13F4B23
:1002C0005B683E4A23F48003536009E097F82C30C2
:1002D000012B05D1394B5B68384A43F480035360E6
:1002E00097F82830002B06D1344B1B68334A23F093
:1002F0008073136010E097F82830012B0CD12F4B3E
:100300001B682E4A43F08073136000BF2B4B1B68A1
:1003100003F00073002BF9D0284B9A68FB7927492A
:1003200013438B6000BF254B9A68FB799B001340F9
:10033000002BF8D0244B00221A600023FB6100231D
:10034000BB6100237B6100233B610023FB60FB79E1
:10035000002B03D11C4B1D4A1A602AE0FB79012BAC
:1003600003D1194B1A4A1A6023E0FB79022B20D1E2
:1003700097F82830012B1CD197F82C30002B02D194
:10038000124BFB6105E097F82C30012B01D1104B8B
:10039000FB613B8EFA69B2FBF3F3BA8E02FB03F307
:1003A000BB613B8FBA69B2FBF3F3BB61064ABB6921
:1003B000136000BF2037BD4690BC70470038024034
:1003C00000700040003C0240040000200024F400C3
:1003D00000127A0080B400AF124B1B68114A23F060
:1003E000010313600F4B1B680E4A43F004031360B4
:1003F0000C4B00225A600B4B00229A600A4B1B6880
:100400000A4AA2FB03239B09064A013B5360054BA2
:100410001B68044A43F00103136000BFBD4680BC63
:10042000704700BF10E000E004000020D34D6210D0
:1004300080B483B000AF78600F4B00229A600F4BFE
:1004400000221A600EE000BF0B4B1B6803F48033E0
:10045000002BF9D07B68013B7B60084B1B680133A4
:10046000064A13607B68002BEDD100BF00BF0C373C
:10047000BD4680BC704700BF10E000E008000020CF
:1004800080B483B000AF78607B683B4A934265D00C
:10049000394A934269D8394A934258D0374A9342ED
:1004A00063D8374A93424BD0354A93425DD8354A98
:1004B00093423ED0334A934257D8334A934231D085
:1004C000314A934251D8314A934224D02F4A934221
:1004D0004BD82F4A934217D02D4A934245D82D4AE4
:1004E000934203D02C4A934207D03EE02B4B1B6B28
:1004F0002A4A43F00103136338E0284B1B6B274A59
:1005000043F00203136331E0244B1B6B234A43F097
:10051000040313632AE0214B1B6B204A43F00803BA
:10052000136323E01D4B1B6B1C4A43F01003136342
:100530001CE01A4B1B6B194A43F02003136315E0B0
:10054000164B1B6B154A43F0400313630EE0134B2D
:100550001B6B124A43F08003136307E00F4B1B6BC6
:100560000E4A43F48073136300E000BF00BF0C37F2
:10057000BD4680BC704700BF00200240001C024006
:10058000001802400014024000100240000C02401B
:10059000000802400000024000040240003802400F
:1005A00080B582B000AF7860084611461A4603460F
:1005B000FB700B46BB7013467B707868FFF760FFDB
:1005C0007B681A68FB785B00012101FA03F31A4388
:1005D0007B681A607B685B68B978FA7801FA02F286
:1005E0001A437B685A607B689B687978FA78520076
:1005F00001FA02F21A437B689A6000BF0837BD46D1
:1006000080BD80B582B000AF78600B46FB701346AA
:10061000BB707868FFF734FF7B681A687B681A60E4
:100620007B68DB68B978FA78520001FA02F21A4363
:100630007B68DA6000BF0837BD4680BD90B583B0E7
:1006400000AF7860084611461A460346FB700B4619
:10065000BB7013467B707868FFF712FF7B681A68DF
:100660007B681A607B68DB68B978FA78520001FA17
:1006700002F21A437B68DA607F4B1B68FA7801212B
:1006800001FA02F211467C4A0B4313607B687B4AF5
:10069000934241D0794A934250D8794A934229D023
:1006A000774A93424AD8774A934203D0764A934294
:1006B0000ED043E0754AFB789B08DBB21C467349B9
:1006C0001846A31C52F82320831C41F8232036E04F
:1006D0006E4AFB789B08D8B20346023352F82330A7
:1006E000FA78012101FA02F268491A43831C41F8A1
:1006F000232024E0654AFB789B08D8B203460233E6
:1007000052F82330FA78022101FA02F25F491A43C3
:10071000831C41F8232012E05C4AFB789B08D8B286
:100720000346023352F82330FA78072101FA02F225
:1007300056491A43831C41F8232000E000BF3B7E4A
:100740000F2B01D90F233B76FB78002B15D1504B93
:1007500093F80633DBB25AB297F918301B015BB23B
:1007600013435AB24A4BD2B283F80623484B1B6854
:10077000474A43F04003136078E0FB78012B15D122
:10078000434B93F80733DBB25AB297F918301B0189
:100790005BB213435AB23E4BD2B283F807233C4BB1
:1007A0001B683B4A43F0800313605FE0FB78022B39
:1007B00015D1374B93F80833DBB25AB297F918309A
:1007C0001B015BB213435AB2314BD2B283F80823F8
:1007D0002F4B5B682E4A43F00103536046E0FB78E1
:1007E000032B15D12A4B93F80933DBB25AB297F990
:1007F00018301B015BB213435AB2254BD2B283F8B7
:100800000923234B5B68224A43F0020353602DE027
:10081000FB78042B15D11E4B93F80A33DBB25AB286
:1008200097F918301B015BB213435AB2184BD2B27E
:1008300083F80A23164B5B68154A43F004035360A0
:1008400014E0134B93F81733DBB25AB297F9183010
:100850001B015BB213435AB20D4BD2B283F817237C
:100860000B4B9B680A4A43F00103936062B600BFDA
:100870000C37BD4690BD00BF003C0140001C02404B
:10088000000802400000024000040240003801401D
:1008900000E100E080B483B000AF78600B46FB70ED
:1008A0001346BB70BB78002B13D17B689B69FA7829
:1008B000012101FA02F21A437B689A617B689B6905
:1008C000FA781032012101FA02F2D2431A407B6811
:1008D0009A61BB78012B13D17B689B69FA7801215F
:1008E00001FA02F2D2431A407B689A617B689B69E5
:1008F000FA781032012101FA02F21A437B689A61F8
:1009000000BF0C37BD4680BC704780B483B000AFD9
:1009100078600B46FB707B681A69FB7822FA03F358
:10092000DBB203F00103DBB218460C37BD4680BCD6
:10093000704700BF80B485B000AF78600C4B1B6877
:100940000C4AA2FB03235B0BBB60BB687A6802FB0B
:1009500003F3FB6000E000BFFB685A1EFA60002B47
:10096000F9D100BF00BF1437BD4680BC704700BF3F
:10097000040000205917B7D180B586B000AF1A4ADD
:100980001A4BD31ABB60194B7B61194B7B60002358
:100990003B610AE07A69531C7B617B69591C796170
:1009A00012781A703B6901333B613A69BB689A421D
:1009B000F0D9104A104BD31ABB600F4B7B61002358
:1009C000FB6007E07B695A1C7A6100221A70FB68A1
:1009D0000133FB60FA68BB689A42F3D9FFF7D4FB96
:1009E00000BF1837BD4680BD000000200000002079
:1009F000000000000C0000200000002080B400AFC8
:100A0000FEE700BF80B400AF00BFBD4680BC7047AA
:100A100080B400AF00BFBD4680BC704780B400AF5B
:100A200000BFBD4680BC704780B400AF00BFBD466C
:100A300080BC704780B400AF00BFBD4680BC70472B
:100A400080B400AF00BFBD4680BC704780B400AF2B
:080A500000BFBD4680BC7047E9
:04000005080009796D
:00000001FF
