:020000040800F2
:1000000000000220C1010008450200084502000866
:1000100045020008450200084502000800000000F3
:100020000000000000000000000000004502000881
:1000300045020008000000004502000845020008D3
:100040004502000845020008450200084502000874
:100050004502000845020008450200084502000864
:100060004502000845020008450200084502000854
:100070004502000845020008450200084502000844
:100080004502000845020008450200084502000834
:100090004502000845020008450200084502000824
:1000A0004502000845020008450200084502000814
:1000B0004502000845020008450200084502000804
:1000C00045020008450200084502000845020008F4
:1000D00045020008450200084502000845020008E4
:1000E00045020008450200084502000845020008D4
:1000F00045020008450200084502000845020008C4
:1001000045020008450200084502000845020008B3
:1001100045020008450200084502000845020008A3
:100120004502000845020008450200084502000893
:100130004502000845020008450200084502000883
:100140004502000845020008450200084502000873
:100150004502000845020008450200084502000863
:100160004502000845020008450200084502000853
:100170004502000845020008450200084502000843
:10018000450200084502000880B400AF002318466D
:10019000BD4680BC7047000080B483B000AF074B01
:1001A0001B681B0C1B047B60044B4FF480021A601D
:1001B00000BF0C37BD4680BC704700BF043802400A
:1001C00080B586B000AF1A4A1A4BD31ABB60194BE0
:1001D0007B61194B7B6000233B610AE07A69531C09
:1001E0007B617B69591C796112781A703B69013314
:1001F0003B613A69BB689A42F0D9104A104BD31A56
:10020000BB600F4B7B610023FB6007E07B695A1CDE
:100210007A6100221A70FB680133FB60FA68BB68E0
:100220009A42F3D9FFF7B0FF00BF1837BD4680BD33
:10023000000000200000002000000000000000205E
:0C0240000000002080B400AFFEE700BF0B
:04000005080001C12D
:00000001FF
