:020000040800F2
:1000000000000220A50200082903000829030008B7
:100010002903000829030008290300080000000044
:10002000000000000000000000000000290300089C
:100030002903000800000000290300082903000824
:1000400029030008290300082903000829030008E0
:1000500029030008290300082903000829030008D0
:1000600029030008290300082903000829030008C0
:1000700029030008290300082903000829030008B0
:1000800029030008290300082903000829030008A0
:100090002903000829030008290300082903000890
:1000A0002903000829030008290300082903000880
:1000B0002903000829030008290300082903000870
:1000C0002903000829030008290300082903000860
:1000D0002903000829030008290300082903000850
:1000E0002903000829030008290300082903000840
:1000F0002903000829030008290300082903000830
:10010000290300082903000829030008290300081F
:10011000290300082903000829030008290300080F
:1001200029030008290300082903000829030008FF
:1001300029030008290300082903000829030008EF
:1001400029030008290300082903000829030008DF
:1001500029030008290300082903000829030008CF
:1001600029030008290300082903000829030008BF
:1001700029030008290300082903000829030008AF
:10018000290300082903000880B400AF00231846A3
:10019000BD4680BC7047000080B483B000AF3D4BCB
:1001A0001B6823F080537B607B6843F001037B6016
:1001B000394A7B681360394B1B6823F480337B60BA
:1001C0007B6843F480337B60344A7B681360324B36
:1001D0001B6823F03F037B602F4A7B6813602E4B24
:1001E0001B687B607B6843F028737B602A4A7B68CE
:1001F0001360294B1B6823F001037B60264A7B6850
:100200001360274B1B687B60254A7B681360244B77
:100210001B687B607B6843F420437B60204A7B68DB
:1002200013601F4B1B6823F001037B607B6843F462
:1002300080237B601A4A7B681360184B1B6823F08D
:1002400080737B607B6843F080737B60134A7B68BC
:100250001360124B1B689BB27B6000BF7B6803F08E
:100260000073002BFAD07B6843F002037B600C4ADA
:100270007B6813600A4B1B689BB27B6000BF7B6886
:1002800003F00803002BFAD000BF00BF0C37BD46B7
:1002900080BC7047403802400438024000380240B9
:1002A0000838024080B586B000AF1A4A1A4BD31AFC
:1002B000BB60194B7B61194B7B6000233B610AE0FB
:1002C0007A69531C7B617B69591C796112781A70B9
:1002D0003B6901333B613A69BB689A42F0D9104AE5
:1002E000104BD31ABB600F4B7B610023FB6007E010
:1002F0007B695A1C7A6100221A70FB680133FB602B
:10030000FA68BB689A42F3D9FFF73EFF00BF18377F
:10031000BD4680BD0000002000000020000000005D
:10032000000000200000002080B400AFFEE700BF06
:04000005080002A548
:00000001FF
