:020000040800F2
:1000000000000220990C00081D0D00081D0D0008BD
:100010001D0D00081D0D00081D0D0008000000004A
:100020000000000000000000000000001D0D00089E
:100030001D0D0008000000001D0D00081D0D00082A
:100040001D0D00081D0D00081D0D00081D0D0008E8
:100050001D0D00081D0D0008250D0008410D0008AC
:100060005D0D0008790D0008A10D00081D0D0008A8
:100070001D0D00081D0D00081D0D00081D0D0008B8
:100080001D0D00081D0D00081D0D00081D0D0008A8
:100090001D0D00081D0D00081D0D0008C90D0008EC
:1000A0001D0D00081D0D00081D0D00081D0D000888
:1000B0001D0D00081D0D00081D0D00081D0D000878
:1000C0001D0D00081D0D00081D0D00081D0D000868
:1000D0001D0D00081D0D00081D0D00081D0D000858
:1000E000510E00081D0D00081D0D00081D0D000813
:1000F0001D0D00081D0D00081D0D00081D0D000838
:100100001D0D00081D0D00081D0D00081D0D000827
:100110001D0D00081D0D00081D0D00081D0D000817
:100120001D0D00081D0D00081D0D00081D0D000807
:100130001D0D00081D0D00081D0D00081D0D0008F7
:100140001D0D00081D0D00081D0D00081D0D0008E7
:100150001D0D00081D0D00081D0D00081D0D0008D7
:100160001D0D00081D0D00081D0D00081D0D0008C7
:100170001D0D00081D0D00081D0D00081D0D0008B7
:100180001D0D00081D0D000880B586B006AF0223C6
:100190000493A823039304230293012301930123CF
:1001A0000093042305220021022000F02BF800F028
:1001B00021F9012300220621104800F001FA0F2343
:1001C00000930223012204210D4800F047FA0F2377
:1001D0000093022301220321094800F03FFA012283
:1001E0000621064800F0E6FC00220621034800F044
:1001F000E1FC41F2707000F02BF9F5E700000240DD
:100200000010024090B488B000AF04460846114682
:100210001A462346FB710346BB710B467B7113469E
:100220003B7197F82C30002B02D0FB79002B0DD1BD
:100230006A4B1B68694A43F00103136000BF674BB8
:100240001B6803F00203002BF9D013E097F82C3061
:10025000012B02D0FB79012B0CD1604B1B685F4A4C
:1002600043F48033136000BF5C4B1B6803F400331E
:10027000002BF9D0594B1B6C584A43F08053136440
:10028000574B1B68564A43F440431360554B40F2AA
:1002900005721A60514B9A68BB791B014F49134391
:1002A0008B604E4B9A687B799B024C4913438B6061
:1002B0004A4B9A683B795B03484913438B603A8EFB
:1002C000BB8E9B011A433B8F5B089BB2013B1B0417
:1002D0001A43424B5A6097F82C30002B06D13F4B03
:1002E0005B683E4A23F48003536009E097F82C30A2
:1002F000012B05D1394B5B68384A43F480035360C6
:1003000097F82830002B06D1344B1B68334A23F072
:100310008073136010E097F82830012B0CD12F4B1D
:100320001B682E4A43F08073136000BF2B4B1B6881
:1003300003F00073002BF9D0284B9A68FB7927490A
:1003400013438B6000BF254B9A68FB799B001340D9
:10035000002BF8D0244B00221A600023FB610023FD
:10036000BB6100237B6100233B610023FB60FB79C1
:10037000002B03D11C4B1D4A1A602AE0FB79012B8C
:1003800003D1194B1A4A1A6023E0FB79022B20D1C2
:1003900097F82830012B1CD197F82C30002B02D174
:1003A000124BFB6105E097F82C30012B01D1104B6B
:1003B000FB613B8EFA69B2FBF3F3BA8E02FB03F3E7
:1003C000BB613B8FBA69B2FBF3F3BB61064ABB6901
:1003D000136000BF2037BD4690BC70470038024014
:1003E00000700040003C0240040000200024F400A3
:1003F00000127A0080B400AF124B1B68114A23F040
:10040000010313600F4B1B680E4A43F00403136093
:100410000C4B00225A600B4B00229A600A4B1B685F
:100420000A4AA2FB03239B09064A013B5360054B82
:100430001B68044A43F00103136000BFBD4680BC43
:10044000704700BF10E000E004000020D34D6210B0
:1004500080B483B000AF78600F4B00229A600F4BDE
:1004600000221A600EE000BF0B4B1B6803F48033C0
:10047000002BF9D07B68013B7B60084B1B68013384
:10048000064A13607B68002BEDD100BF00BF0C371C
:10049000BD4680BC704700BF10E000E008000020AF
:1004A00080B483B000AF78607B683B4A934265D0EC
:1004B000394A934269D8394A934258D0374A9342CD
:1004C00063D8374A93424BD0354A93425DD8354A78
:1004D00093423ED0334A934257D8334A934231D065
:1004E000314A934251D8314A934224D02F4A934201
:1004F0004BD82F4A934217D02D4A934245D82D4AC4
:10050000934203D02C4A934207D03EE02B4B1B6B07
:100510002A4A43F00103136338E0284B1B6B274A38
:1005200043F00203136331E0244B1B6B234A43F077
:10053000040313632AE0214B1B6B204A43F008039A
:10054000136323E01D4B1B6B1C4A43F01003136322
:100550001CE01A4B1B6B194A43F02003136315E090
:10056000164B1B6B154A43F0400313630EE0134B0D
:100570001B6B124A43F08003136307E00F4B1B6BA6
:100580000E4A43F48073136300E000BF00BF0C37D2
:10059000BD4680BC704700BF00200240001C0240E6
:1005A000001802400014024000100240000C0240FB
:1005B00000080240000002400004024000380240EF
:1005C00080B582B000AF7860084611461A460346EF
:1005D000FB700B46BB7013467B707868FFF760FFBB
:1005E0007B681A68FB785B00012101FA03F31A4368
:1005F0007B681A607B685B68B978FA7801FA02F266
:100600001A437B685A607B689B687978FA78520055
:1006100001FA02F21A437B689A6000BF0837BD46B0
:1006200080BD80B582B000AF78600B46FB7013468A
:10063000BB707868FFF734FF7B681A687B681A60C4
:100640007B68DB68B978FA78520001FA02F21A4343
:100650007B68DA6000BF0837BD4680BD80B584B0D6
:1006600000AF7860084611461A460346FB700B46F9
:10067000BB7013467B70BA78FB7819467868FFF731
:10068000D0FF9F4B5B6C9E4A43F480435364FF232F
:10069000FB737B689B4A934257D09A4A934257D840
:1006A000994A93424ED0984A934251D8974A9342DE
:1006B00045D0964A93424BD8954A93423CD0944AAF
:1006C000934245D8934A934233D0924A93423FD8BB
:1006D000914A93422AD0904A934239D88F4A934202
:1006E00021D08E4A934233D88D4A934218D08C4AF7
:1006F00093422DD88B4A93420FD08A4A934227D8EF
:10070000894A934203D0894A934203D020E00023D0
:10071000FB731EE00123FB731BE00223FB7318E055
:100720000323FB7315E00423FB7312E00523FB7323
:100730000FE00623FB730CE00723FB7309E008239B
:10074000FB7306E00923FB7303E00A23FB7300E05D
:1007500000BF774AFB789B08D8B20346023352F8B1
:100760002330FA7802F0030292000F2101FA02F21C
:10077000D2436F491A40831C41F823206C4AFB780E
:100780009B08D8B20346023352F82330F97BFA783B
:1007900002F00302920001FA02F265491A43831C37
:1007A00041F82320634B1B68FA78012101FA02F219
:1007B0001146604A0B4313607B78022B32D0022B28
:1007C00045DC002B02D0012B16D040E0594B9B6832
:1007D000FA78012101FA02F21146564A0B4393605E
:1007E000544BDB68FA78012101FA02F2D243114638
:1007F000504A0B40D3602BE04E4BDB68FA78012166
:1008000001FA02F2D24311464A4A0B40D360494BE7
:100810009B68FA78012101FA02F21146454A0B431E
:10082000936015E0434B9B68FA78012101FA02F2CC
:100830001146404A0B4393603E4BDB68FA78012136
:1008400001FA02F211463B4A0B43D36000E000BFBD
:100850003B7E0F2B01D90F233B76FB780F2B00F249
:10086000A18101A252F823F0A9080008D5080008C8
:100870003D0900086909000895090008C109000838
:10088000ED090008190A0008450A0008710A000865
:100890009D0A0008C90A0008F50A0008210B000893
:1008A0004D0B0008790B0008234B93F80633DBB29D
:1008B0005AB297F918301B015BB213435AB21E4B60
:1008C000D2B283F806231C4B1B681B4A43F040033B
:1008D000136068E1184B93F80733DBB25AB297F90B
:1008E00018301B015BB213435AB2134BD2B283F8D8
:1008F0000723114B1B68104A43F08003136052E139
:10090000003802400028024000240240002002403B
:10091000001C024000180240001402400010024077
:10092000000C0240000802400000024000040240A7
:1009300000380140003C014000E100E09C4B93F88E
:100940000833DBB25AB297F918301B015BB213437C
:100950005AB2974BD2B283F80823954B1B68944A3E
:1009600043F4807313601EE1914B93F80933DBB2BB
:100970005AB297F918301B015BB213435AB28C4B31
:10098000D2B283F809238A4B1B68894A43F4007367
:10099000136008E1864B93F80A33DBB25AB297F939
:1009A00018301B015BB213435AB2814BD2B283F8A9
:1009B0000A237F4B1B687E4A43F480631360F2E096
:1009C0007B4B93F81733DBB25AB297F918301B01FF
:1009D0005BB213435AB2764BD2B283F81723744BEF
:1009E0001B68734A43F400031360DCE0704B93F818
:1009F0001733DBB25AB297F918301B015BB21343BD
:100A00005AB26B4BD2B283F81723694B1B68684A02
:100A100043F400031360C6E0654B93F81733DBB271
:100A20005AB297F918301B015BB213435AB2604BAC
:100A3000D2B283F817235E4B1B685D4A43F4000370
:100A40001360B0E05A4B93F81733DBB25AB297F900
:100A500018301B015BB213435AB2554BD2B283F824
:100A60001723534B1B68524A43F4000313609AE068
:100A70004F4B93F81733DBB25AB297F918301B017A
:100A80005BB213435AB24A4BD2B283F81723484B96
:100A90001B68474A43F40003136084E0444B93F817
:100AA0002833DBB25AB297F918301B015BB21343FB
:100AB0005AB23F4BD2B283F828233D4B5B683C4A85
:100AC00043F4807353606EE0394B93F82833DBB204
:100AD0005AB297F918301B015BB213435AB2344B28
:100AE000D2B283F82823324B5B68314A43F4007357
:100AF000536058E02E4B93F82833DBB25AB297F983
:100B000018301B015BB213435AB2294BD2B283F89F
:100B10002823274B5B68264A43F48063536042E0F6
:100B2000234B93F82833DBB25AB297F918301B01E4
:100B30005BB213435AB21E4BD2B283F828231C4B2C
:100B40005B681B4A43F4006353602CE0184B93F836
:100B50002833DBB25AB297F918301B015BB213434A
:100B60005AB2134BD2B283F82823114B5B68104A58
:100B700043F48053536016E00D4B93F82833DBB2F7
:100B80005AB297F918301B015BB213435AB2084BA3
:100B9000D2B283F82823064B5B68054A43F400531E
:100BA000536000E000BF62B600BF1037BD4680BD95
:100BB00000E100E080B483B000AF78600B46FB70CA
:100BC0001346BB70BB78012B13D17B689B69FA7805
:100BD000012101FA02F21A437B689A617B689B69E2
:100BE000FA781032012101FA02F2D2431A407B68EE
:100BF0009A61BB78002B13D17B689B69FA7801213D
:100C000001FA02F2D2431A407B689A617B689B69C1
:100C1000FA781032012101FA02F21A437B689A61D4
:100C200000BF0C37BD4680BC704780B483B000AFB6
:100C300078600B46FB707B681A69FB7822FA03F335
:100C4000DBB203F00103DBB218460C37BD4680BCB3
:100C5000704700BF80B485B000AF78600C4B1B6854
:100C60000C4AA2FB03235B0BBB60BB687A6802FBE8
:100C700003F3FB6000E000BFFB685A1EFA60002B24
:100C8000F9D100BF00BF1437BD4680BC704700BF1C
:100C9000040000205917B7D180B586B000AF1A4ABA
:100CA0001A4BD31ABB60194B7B61194B7B60002335
:100CB0003B610AE07A69531C7B617B69591C79614D
:100CC00012781A703B6901333B613A69BB689A42FA
:100CD000F0D9104A104BD31ABB600F4B7B61002335
:100CE000FB6007E07B695A1C7A6100221A70FB687E
:100CF0000133FB60FA68BB689A42F3D9FFF744FA04
:100D000000BF1837BD4680BD000000200000002055
:100D1000000000000C0000200000002080B400AFA4
:100D2000FEE700BF80B400AF044B5B69034A43F0A9
:100D30000103536100BFBD4680BC7047003C0140C9
:100D400080B400AF044B5B69034A43F00203536174
:100D500000BFBD4680BC7047003C014080B400AF7E
:100D6000044B5B69034A43F00403536100BFBD4673
:100D700080BC7047003C014080B500AF01220621D5
:100D80000548FFF717FF054B5B69044A43F008036A
:100D9000536100BF80BD00BF00000240003C014025
:100DA00080B500AF012206210548FFF703FF054B80
:100DB0005B69044A43F01003536100BF80BD00BF6C
:100DC00000000240003C014080B400AF1F4B5B6953
:100DD00003F02003002B05D01C4B5B691B4A43F03A
:100DE00020035361194B5B6903F04003002B05D0CE
:100DF000164B5B69154A43F040035361134B5B6923
:100E000003F08003002B05D0104B5B690F4A43F0C1
:100E1000800353610D4B5B6903F48073002B05D095
:100E20000A4B5B69094A43F480735361074B5B6962
:100E300003F40073002B05D0044B5B69034A43F4B1
:100E40000073536100BFBD4680BC7047003C014049
:100E500080B400AF254B5B6903F48063002B05D0A1
:100E6000224B5B69214A43F4806353611F4B5B69EA
:100E700003F40063002B05D01C4B5B691B4A43F451
:100E800000635361194B5B6903F48053002B05D059
:100E9000164B5B69154A43F480535361134B5B69EE
:100EA00003F40053002B05D0104B5B690F4A43F449
:100EB000005353610D4B5B6903F48043002B05D055
:100EC0000A4B5B69094A43F480435361074B5B69F2
:100ED00003F40043002B05D0044B5B69034A43F441
:100EE0000043536100BFBD4680BC7047003C0140D9
:0400000508000C994A
:00000001FF
