:020000040800F2
:1000000000000220A10400082505000825050008BD
:10001000250500082505000825050008000000004A
:10002000000000000000000000000000250500089E
:10003000250500080000000025050008250500082A
:1000400025050008250500082505000825050008E8
:1000500025050008250500082505000825050008D8
:1000600025050008250500082505000825050008C8
:1000700025050008250500082505000825050008B8
:1000800025050008250500082505000825050008A8
:100090002505000825050008250500082505000898
:1000A0002505000825050008250500082505000888
:1000B0002505000825050008250500082505000878
:1000C0002505000825050008250500082505000868
:1000D0002505000825050008250500082505000858
:1000E0002505000825050008250500082505000848
:1000F0002505000825050008250500082505000838
:100100002505000825050008250500082505000827
:100110002505000825050008250500082505000817
:100120002505000825050008250500082505000807
:1001300025050008250500082505000825050008F7
:1001400025050008250500082505000825050008E7
:1001500025050008250500082505000825050008D7
:1001600025050008250500082505000825050008C7
:1001700025050008250500082505000825050008B7
:10018000250500082505000880B400AFFEE7000043
:1001900080B400AF284B1B6C274A43F08053136494
:1001A000264B1B68254A43F440431360244B40F21E
:1001B00005721A60204B1B681F4A43F4803313609A
:1001C00000BF1D4B1B6803F40033002BF9D01A4B02
:1001D0001C4A5A60184B9B68174A23F0100393601F
:1001E000154B9B68144A43F4A0539360124B9B68D1
:1001F000114A43F4004393600F4B1B680E4A43F0CF
:100200008073136000BF0C4B1B6803F00073002B5E
:10021000F9D0094B9B68084A43F00203936000BF82
:10022000054B9B6803F00803002BF9D000BF00BF0B
:10023000BD4680BC704700BF0038024000700040DF
:10024000003C02401954420080B483B000AF786093
:100250007B683B4A934265D0394A934269D8394A10
:10026000934258D0374A934263D8374A93424BD08F
:10027000354A93425DD8354A93423ED0334A934241
:1002800057D8334A934231D0314A934251D8314AF8
:10029000934224D02F4A93424BD82F4A934217D0EF
:1002A0002D4A934245D82D4A934203D02C4A93427B
:1002B00007D03EE02B4B1B6B2A4A43F0010313632C
:1002C00038E0284B1B6B274A43F00203136331E0ED
:1002D000244B1B6B234A43F0040313632AE0214B96
:1002E0001B6B204A43F00803136323E01D4B1B6B79
:1002F0001C4A43F0100313631CE01A4B1B6B194A92
:1003000043F02003136315E0164B1B6B154A43F0B3
:10031000400313630EE0134B1B6B124A43F0800340
:10032000136307E00F4B1B6B0E4A43F48073136398
:1003300000E000BF00BF0C37BD4680BC704700BF67
:1003400000200240001C024000180240001402403D
:1003500000100240000C0240000802400000024071
:10036000000402400038024080B483B000AF7860DF
:10037000084611461A460346FB700B46BB701346EF
:100380007B707B681A68FB785B000133012101FAFE
:1003900003F31A437B681A607B685B68B978FA7864
:1003A00001FA02F21A437B685A607B689B6879788D
:1003B000FA785200013201FA02F21A437B689A601D
:1003C00000BF0C37BD4680BC704780B483B000AF1F
:1003D00078600B46FB701346BB707B681A687B68BD
:1003E0001A607B68DB68B978FA785200013201FA4A
:1003F00002F21A437B68DA6000BF0C37BD4680BC4E
:10040000704780B483B000AF78600B46FB70134632
:10041000BB70BB78002B13D17B689B69FA780121F4
:1004200001FA02F21A437B689A617B689B69FA7849
:100430001032012101FA02F2D2431A407B689A611C
:10044000BB78012B13D17B689B69FA78012101FAF3
:1004500002F2D2431A407B689A617B689B69FA7802
:100460001032012101FA02F21A437B689A6100BF3F
:100470000C37BD4680BC704780B483B000AF786055
:100480000B46FB707B681A69FB7822FA03F3DBB238
:1004900003F00103DBB218460C37BD4680BC704741
:1004A00080B586B000AF1A4A1A4BD31ABB60194BFD
:1004B0007B61194B7B6000233B610AE07A69531C26
:1004C0007B617B69591C796112781A703B69013331
:1004D0003B613A69BB689A42F0D9104A104BD31A73
:1004E000BB600F4B7B610023FB6007E07B695A1CFC
:1004F0007A6100221A70FB680133FB60FA68BB68FE
:100500009A42F3D9FFF740FE00BF1837BD4680BDC1
:10051000000000200000002000000000000000207B
:0C0520000000002080B400AFFEE700BF28
:04000005080004A14A
:00000001FF
