:020000040800F2
:100000000000022061050008E5050008E50500087C
:10001000E5050008E5050008E5050008000000000A
:10002000000000000000000000000000E5050008DE
:10003000E505000800000000E5050008E5050008EA
:10004000E5050008E5050008E5050008E5050008E8
:10005000E5050008E5050008E5050008E5050008D8
:10006000E5050008E5050008E5050008E5050008C8
:10007000E5050008E5050008E5050008E5050008B8
:10008000E5050008E5050008E5050008E5050008A8
:10009000E5050008E5050008E5050008E505000898
:1000A000E5050008E5050008E5050008E505000888
:1000B000E5050008E5050008E5050008E505000878
:1000C000E5050008E5050008E5050008E505000868
:1000D000E5050008E5050008E5050008E505000858
:1000E000E5050008E5050008E5050008E505000848
:1000F000E5050008E5050008E5050008E505000838
:10010000E5050008E5050008E5050008E505000827
:10011000E5050008E5050008E5050008E505000817
:10012000E5050008E5050008E5050008E505000807
:10013000E5050008E5050008E5050008E5050008F7
:10014000E5050008E5050008E5050008E5050008E7
:10015000E5050008E5050008E5050008E5050008D7
:10016000E5050008E5050008E5050008E5050008C7
:10017000E5050008E5050008E5050008E5050008B7
:10018000E5050008E505000880B586B006AF022346
:1001900004934FF4A873039319230293012301934B
:1001A00001230093042305220021022000F00AF815
:1001B000012300220021024800F032F9FEE700BFCF
:1001C0000000024090B482B000AF044608461146D9
:1001D0001A462346FB710346BB710B467B711346DF
:1001E0003B71444B1B6C434A43F080531364424BB6
:1001F0001B68414A43F440431360404B40F2057290
:100200001A603B7D012B13D13A4B1B68394A43F0EE
:100210000103136000BF374B1B6803F00203002B80
:10022000F9D0344B5B68334A43F48003536015E0E4
:100230003B7D002B12D12F4B1B682E4A43F4803399
:10024000136000BF2B4B1B6803F40033002BF9D065
:10025000284B5B68274A23F4800353603A8BBB8B9F
:100260009B011A433B8C1B041A43224B5A60214BBF
:100270009A68BB79DB011F4913438B601D4B9A6859
:100280007B791B031B4913438B601A4B9A683B799C
:10029000DB03184913438B603B7C012B06D1154BC4
:1002A0001B68144A23F0807313600FE03B7C002B23
:1002B0000CD1104B1B680F4A43F08073136000BFD2
:1002C0000C4B1B6803F00073002BF9D0094B9A68A4
:1002D000FB79084913438B6000BF064B9A68FB7992
:1002E0009B001340002BF8D000BF00BF0837BD466D
:1002F00090BC70470038024000700040003C024053
:1003000080B483B000AF78607B683B4A934265D08D
:10031000394A934269D8394A934258D0374A93426E
:1003200063D8374A93424BD0354A93425DD8354A19
:1003300093423ED0334A934257D8334A934231D006
:10034000314A934251D8314A934224D02F4A9342A2
:100350004BD82F4A934217D02D4A934245D82D4A65
:10036000934203D02C4A934207D03EE02B4B1B6BA9
:100370002A4A43F00103136338E0284B1B6B274ADA
:1003800043F00203136331E0244B1B6B234A43F019
:10039000040313632AE0214B1B6B204A43F008033C
:1003A000136323E01D4B1B6B1C4A43F010031363C4
:1003B0001CE01A4B1B6B194A43F02003136315E032
:1003C000164B1B6B154A43F0400313630EE0134BAF
:1003D0001B6B124A43F08003136307E00F4B1B6B48
:1003E0000E4A43F48073136300E000BF00BF0C3774
:1003F000BD4680BC704700BF00200240001C024088
:10040000001802400014024000100240000C02409C
:100410000008024000000240000402400038024090
:1004200080B582B000AF7860084611461A46034690
:10043000FB700B46BB7013467B707868FFF760FF5C
:100440007B681A68FB785B000133012101FA03F332
:100450001A437B681A607B685B68B978FA7801FA9E
:1004600002F21A437B685A607B689B687978FA7855
:100470005200013201FA02F21A437B689A6000BF0F
:100480000837BD4680BD80B582B000AF78600B46AE
:10049000FB701346BB707868FFF732FF7B681A6801
:1004A0007B681A607B68DB68B978FA7852000132A1
:1004B00001FA02F21A437B68DA6000BF0837BD46D2
:1004C00080BD80B483B000AF78600B46FB701346EC
:1004D000BB70BB78002B13D17B689B69FA78012134
:1004E00001FA02F21A437B689A617B689B69FA7889
:1004F0001032012101FA02F2D2431A407B689A615C
:10050000BB78012B13D17B689B69FA78012101FA32
:1005100002F2D2431A407B689A617B689B69FA7841
:100520001032012101FA02F21A437B689A6100BF7E
:100530000C37BD4680BC704780B483B000AF786094
:100540000B46FB707B681A69FB7822FA03F3DBB277
:1005500003F00103DBB218460C37BD4680BC704780
:1005600080B586B000AF1A4A1A4BD31ABB60194B3C
:100570007B61194B7B6000233B610AE07A69531C65
:100580007B617B69591C796112781A703B69013370
:100590003B613A69BB689A42F0D9104A104BD31AB2
:1005A000BB600F4B7B610023FB6007E07B695A1C3B
:1005B0007A6100221A70FB680133FB60FA68BB683D
:1005C0009A42F3D9FFF7E0FD00BF1837BD4680BD62
:1005D00000000020000000200000000000000020BB
:0C05E0000000002080B400AFFEE700BF68
:040000050800056189
:00000001FF
