:020000040800F2
:1000000000000220190800089D0800089D0800084B
:100010009D0800089D0800089D08000800000000D9
:100020000000000000000000000000009D08000823
:100030009D080008000000009D0800089D080008B9
:100040009D0800089D0800089D0800089D080008FC
:100050009D0800089D080008A5080008C1080008C0
:10006000DD080008F9080008150900089D080008C7
:100070009D0800089D0800089D0800089D080008CC
:100080009D0800089D0800089D0800089D080008BC
:100090009D0800089D0800089D0800083D0900080B
:1000A0009D0800089D0800089D0800089D0800089C
:1000B0009D0800089D0800089D0800089D0800088C
:1000C0009D0800089D0800089D0800089D0800087C
:1000D0009D0800089D0800089D0800089D0800086C
:1000E000C50900089D0800089D0800089D08000833
:1000F0009D0800089D0800089D0800089D0800084C
:100100009D0800089D0800089D0800089D0800083B
:100110009D0800089D0800089D0800089D0800082B
:100120009D0800089D0800089D0800089D0800081B
:100130009D0800089D0800089D0800089D0800080B
:100140009D0800089D0800089D0800089D080008FB
:100150009D0800089D0800089D0800089D080008EB
:100160009D0800089D0800089D0800089D080008DB
:100170009D0800089D0800089D0800089D080008CB
:100180009D0800089D08000880B586B006AF0223D0
:100190000493A823039304230293012301930123CF
:1001A0000093042305220021022000F03DF800F016
:1001B00033F9012300220621194800F013FA012225
:1001C0000321184800F03FFA0F2300930223012275
:1001D0000421144800F054FA01220621104800F0CE
:1001E000A9FA03210F4800F0E0FA0346002B0CD1D6
:1001F000012206210A4800F09DFA00BF03210948A8
:1002000000F0D3FA0346002BF8D000220621044860
:1002100000F090FA41F2707000F02CF9E1E700BFB5
:10022000000002400010024090B488B000AF0446C5
:10023000084611461A462346FB710346BB710B461E
:100240007B7113463B7197F82C30002B02D0FB7961
:10025000002B0DD16A4B1B68694A43F00103136000
:1002600000BF674B1B6803F00203002BF9D013E0BB
:1002700097F82C30012B02D0FB79012B0CD1604B6D
:100280001B685F4A43F48033136000BF5C4B1B68FC
:1002900003F40033002BF9D0594B1B6C584A43F040
:1002A00080531364574B1B68564A43F44043136012
:1002B000554B40F205721A60514B9A68BB791B018D
:1002C0004F4913438B604E4B9A687B799B024C4994
:1002D00013438B604A4B9A683B795B03484913434D
:1002E0008B603A8EBB8E9B011A433B8F5B089BB29F
:1002F000013B1B041A43424B5A6097F82C30002BE9
:1003000006D13F4B5B683E4A23F48003536009E00B
:1003100097F82C30012B05D1394B5B68384A43F4F0
:100320008003536097F82830002B06D1344B1B68AC
:10033000334A23F08073136010E097F82830012BC4
:100340000CD12F4B1B682E4A43F08073136000BF03
:100350002B4B1B6803F00073002BF9D0284B9A68D5
:10036000FB79274913438B6000BF254B9A68FB79C3
:100370009B001340002BF8D0244B00221A6000236E
:10038000FB610023BB6100237B6100233B610023F1
:10039000FB60FB79002B03D11C4B1D4A1A602AE03D
:1003A000FB79012B03D1194B1A4A1A6023E0FB7920
:1003B000022B20D197F82830012B1CD197F82C3034
:1003C000002B02D1124BFB6105E097F82C30012B7A
:1003D00001D1104BFB613B8EFA69B2FBF3F3BA8E8D
:1003E00002FB03F3BB613B8FBA69B2FBF3F3BB6162
:1003F000064ABB69136000BF2037BD4690BC7047FA
:100400000038024000700040003C02400400002020
:100410000024F40000127A0080B400AF124B1B6875
:10042000114A23F0010313600F4B1B680E4A43F07F
:10043000040313600C4B00225A600B4B00229A609D
:100440000A4B1B680A4AA2FB03239B09064A013B8D
:100450005360054B1B68044A43F00103136000BF5F
:10046000BD4680BC704700BF10E000E004000020E3
:10047000D34D621080B483B000AF78600F4B002280
:100480009A600F4B00221A600EE000BF0B4B1B68F6
:1004900003F48033002BF9D07B68013B7B60084B71
:1004A0001B680133064A13607B68002BEDD100BF47
:1004B00000BF0C37BD4680BC704700BF10E000E0B5
:1004C0000800002080B483B000AF78607B683B4AAE
:1004D000934265D0394A934269D8394A934258D0F9
:1004E000374A934263D8374A93424BD0354A9342B6
:1004F0005DD8354A93423ED0334A934257D8334A67
:10050000934231D0314A934251D8314A934224D058
:100510002F4A93424BD82F4A934217D02D4A9342E9
:1005200045D82D4A934203D02C4A934207D03EE04F
:100530002B4B1B6B2A4A43F00103136338E0284B13
:100540001B6B274A43F00203136331E0244B1B6B00
:10055000234A43F0040313632AE0214B1B6B204A18
:1005600043F00803136323E01D4B1B6B1C4A43F04D
:10057000100313631CE01A4B1B6B194A43F0200352
:10058000136315E0164B1B6B154A43F040031363CE
:100590000EE0134B1B6B124A43F08003136307E01A
:1005A0000F4B1B6B0E4A43F48073136300E000BFD4
:1005B00000BF0C37BD4680BC704700BF0020024022
:1005C000001C0240001802400014024000100240CB
:1005D000000C0240000802400000024000040240FB
:1005E0000038024080B582B000AF786008461146FE
:1005F0001A460346FB700B46BB7013467B70786847
:10060000FFF760FF7B681A68FB785B00012101FA45
:1006100003F31A437B681A607B685B68B978FA78E1
:1006200001FA02F21A437B685A607B689B6879780A
:10063000FA78520001FA02F21A437B689A6000BF0E
:100640000837BD4680BD80B582B000AF78600B46EC
:10065000FB701346BB707868FFF734FF7B681A683D
:100660007B681A607B68DB68B978FA78520001FA17
:1006700002F21A437B68DA6000BF0837BD4680BDCE
:1006800080B582B000AF7860084611461A4603462E
:10069000FB700B46BB7013467B707868FFF712FF48
:1006A0007B681A687B681A607B68DB68B978FA78BF
:1006B000520001FA02F21A437B68DA60194B5B6C54
:1006C000184A43F480435364174BDB68164A23F0FF
:1006D0000F03D360144BDB68134A43F00403D36069
:1006E000124B1B68114A43F0100313600F4B9B68B9
:1006F0000E4A23F0100393600C4BDB680B4A43F067
:100700001003D3600A4B1B68094A43F480631360EB
:10071000074BF02283F80A2362B600BF0837BD46B4
:1007200080BD00BF0038024000380140003C01405D
:1007300000E100E080B483B000AF78600B46FB704E
:100740001346BB70BB78012B13D17B689B69FA7889
:10075000012101FA02F21A437B689A617B689B6966
:10076000FA781032012101FA02F2D2431A407B6872
:100770009A61BB78002B13D17B689B69FA780121C1
:1007800001FA02F2D2431A407B689A617B689B6946
:10079000FA781032012101FA02F21A437B689A6159
:1007A00000BF0C37BD4680BC704780B483B000AF3B
:1007B00078600B46FB707B681A69FB7822FA03F3BA
:1007C000DBB203F00103DBB218460C37BD4680BC38
:1007D000704700BF80B485B000AF78600C4B1B68D9
:1007E0000C4AA2FB03235B0BBB60BB687A6802FB6D
:1007F00003F3FB6000E000BFFB685A1EFA60002BA9
:10080000F9D100BF00BF1437BD4680BC704700BFA0
:10081000040000205917B7D180B586B000AF1A4A3E
:100820001A4BD31ABB60194B7B61194B7B600023B9
:100830003B610AE07A69531C7B617B69591C7961D1
:1008400012781A703B6901333B613A69BB689A427E
:10085000F0D9104A104BD31ABB600F4B7B610023B9
:10086000FB6007E07B695A1C7A6100221A70FB6802
:100870000133FB60FA68BB689A42F3D9FFF784FC46
:1008800000BF1837BD4680BD0000002000000020DA
:10089000000000000C0000200000002080B400AF29
:1008A000FEE700BF80B400AF044B5B69034A43F02E
:1008B0000103536100BFBD4680BC7047003C01404E
:1008C00080B400AF044B5B69034A43F002035361F9
:1008D00000BFBD4680BC7047003C014080B400AF03
:1008E000044B5B69034A43F00403536100BFBD46F8
:1008F00080BC7047003C014080B400AF044B5B6992
:10090000034A43F00803536100BFBD4680BC7047F3
:10091000003C014080B500AF012206210548FFF7E9
:1009200009FF054B5B69044A43F01003536100BFA4
:1009300080BD00BF00000240003C014080B400AF19
:100940001F4B5B6903F02003002B05D01C4B5B6938
:100950001B4A43F020035361194B5B6903F04003CA
:10096000002B05D0164B5B69154A43F040035361D9
:10097000134B5B6903F08003002B05D0104B5B69C0
:100980000F4A43F0800353610D4B5B6903F480739E
:10099000002B05D00A4B5B69094A43F4807353610D
:1009A000074B5B6903F40073002B05D0044B5B69B4
:1009B000034A43F40073536100BFBD4680BC7047D7
:1009C000003C014080B400AF254B5B6903F48063B9
:1009D000002B05D0224B5B69214A43F480635361AD
:1009E0001F4B5B6903F40063002B05D01C4B5B6954
:1009F0001B4A43F400635361194B5B6903F4805352
:100A0000002B05D0164B5B69154A43F480535361A4
:100A1000134B5B6903F40053002B05D0104B5B694B
:100A20000F4A43F4005353610D4B5B6903F4804359
:100A3000002B05D00A4B5B69094A43F4804353619C
:100A4000074B5B6903F40043002B05D0044B5B6943
:100A5000034A43F40043536100BFBD4680BC704766
:040A6000003C014015
:0400000508000819CE
:00000001FF
